S01C0000476C656963687374726F6D6D6F746F725F50574D2E7372656303
S21440000050080020810140007D0140007D014000F5
S2144000107D0140007D0140007D0140000000000061
S2144000200000000000000000000000007D014000CD
S2144000307D014000000000007D0140007D01400041
S2144000407D0140007D0140007D0140007D01400073
S2144000507D0140007D0140007D0140000000000021
S2144000607D0140007D014000000000007D01400011
S2144000707D0140007D0140007D0140007D01400043
S21440008000000000000000007D0140007D014000AF
S2144000907D0140007D0140007D0140007D01400023
S2144000A07D0140007D0140007D0140007D01400013
S2144000B07D0140007D0140007D0140007D01400003
S2144000C07D0140007D0140007D01400008B50548A7
S2144000D0054B191A062900D808BD044A002AFBD049
S2144000E09047F9E7AC064000AF064000000000002D
S2144000F008B50748074B191A8A1002EBD2735910F5
S21440010000D108BD044A002AFBD09047F9E700BF5B
S214400110AC064000AC0640000000000010B5064C9F
S214400120237843B9FFF7D2FF044810B10448AFF331
S21440013000800121217010BD300400200000000026
S214400140AC06400008B5084B1BB108480849AFF359
S21440015000800848016811B1074A02B19047BDE8DF
S2144001600840FFF7C5BF00BF00000000AC064000D7
S21440017034040020AC06400000000000FEE700BF4C
S21440018038B540F20003C2F2000340F2AC62C0F25F
S21440019040029A4203D039483949814204D3394B08
S2144001A0394A9A4225D342E0384D394C631B23F0F6
S2144001B003054FF0000340F20002C2F2000240F294
S2144001C0AC61C0F2400105F10400C5F380045D58FF
S2144001D09D5003F10403834246D1E0E75D589D50AD
S2144001E003F104035C589C5003F104038342F5D1A9
S2144001F0D5E7284D2849481B20F0030440F23043F9
S214400200C2F20003E2184FF00001501BA0F10400B8
S214400210C0F3800445F8041F95421ED107E005F15F
S2144002200403696005F1080559609542F7D140F22C
S2144002300005C0F2400525F07F024FF46D41CEF236
S21440024000018A6040F21560C0F24000804740F2EC
S2144002506544C0F24004A047FEE7002CDFD045F8D6
S214400260041F9542DBD1E2E7002CB7D05C589C5087
S21440027003F104038342B1D191E700BF300400206C
S214400280000000204C040020300400200400002021
S214400290330400202C040020470400204FF48263DF
S2144002A0C4F20E031A6842F00050186048F210017B
S2144002B0C4F203010B6843F040020A60704700BF77
S2144002C04FF40043C4F203031A6842F00200186079
S2144002D0704700BF48F26803C4F2030318687047CB
S2144002E030B44FF48263C4F20E031A6842F0004002
S2144002F0186040F60461C4F20E010A684FF0FF34FD
S2144003000C604FF46765C4F20E054FF4F0432B6063
S2144003104FF0E404C4F2020444F6FC52C5F257021D
S21440032022604FF00000C4F20200016841F001155F
S2144003300560036843F0012202604FF40070C4F287
S2144003400200016821F0010505604FF40871C4F20F
S21440035002010B6823F001020A604FF41072C4F2E7
S2144003600202156825F0010313604FF41873C4F2B7
S21440037002031D6825F001051D60056845F480757B
S2144003800560086840F480700860116841F4807029
S21440039010601A6842F4807119604FF00803C4F286
S2144003A00203186840F00F021A6021686FEA1133A2
S2144003B06FEA033020604FF40B71C4F202010A6802
S2144003C06FEA12336FEA033008604FF41371C4F2D9
S2144003D002010A686FEA12336FEA033008604FF48E
S2144003E01B71C4F202010A686FEA12336FEA0330E7
S2144003F008604FF40171C4F2020140F6FF730B60CF
S2144004004FF40972C4F2020213604FF41170C4F242
S214400410020003604FF41971C4F202010B604FF002
S2144004202003C4F202031A6822F4803018604FF0AA
S2144004301001C4F202010B6843F00F020A604FF04D
S2144004403C00C4F20200016841F0010303604FF033
S2144004500400C4F20200026842F00F01016030BCA2
S214400460704700BF2DE9F84340F29D23C0F2400399
S214400470984740F2E120C0F2400080474FF40279AE
S214400480C4F202094FF40A78C4F202084FF4127715
S214400490C4F202074FF41A76C4F202064FF028055B
S2144004A0C4F2020541F25044C4F20E0440F2C121A7
S2144004B0C0F24001884740F2D522C0F24002904741
S2144004C0B0F5FA6F14DAC9F80000C8F800004FF625
S2144004D0FF70386030602A6842F001032B604FF0AE
S2144004E0254121604FF00100CAF200502060DDE750
S2144004F0B0F5FA6F14DD4FF6FF71C9F80010C8F872
S214400500001038603060286840F001022A604FF0E2
S214400510254323604FF00101CAF200512160C5E730
S21440052040F6FF73C9F80030C8F800303B603360CF
S214400530286840F0010129604FF0254222604FF0C4
S2144005400103CAF200532360B0E700BF2DE9F84329
S2144005509846234B1C680646D4F848010F469146F9
S21440056018B904F5A670C4F8480141681F2916DD7D
S2144005701C4818B94FF0FF30BDE8F8834FF4C870F8
S214400580AFF300800028F5D0D4F848210025456018
S2144005900260C4F84801C0F88851C0F88C51B6B122
S2144005A04468D0F88811012200EB840302FA04F272
S2144005B01143022EC3F88890C0F888111C46C3F831
S2144005C0088104D1D0F88C311A43C0F88C21416898
S2144005D08B1C4A1C40F8237042600020BDE8F8831C
S2144005E0800640000000000070B5084B084CE01A3A
S2144005F0841003EB84060025043D1CB172599047D5
S214400600013CF9E7BDE8704000F048B8A806400055
S214400610AC06400038B50E4D0E4BE81A8510002447
S214400620AC4205D00B4951F8242090470134F7E7F7
S21440063000F02AF80849094A541AA5100024AC428A
S21440064005D0054B53F8240080470134F7E738BD02
S2144006509406400094064000940640009C064000E5
S214400660024B13B1024800F005B870470000000086
S214400670E90540000146002002460346FFF766BFF4
S2144006800800002043000000F8B500BFF8BC08BCD6
S2144006909E4670476106400045014000F8B500BFE1
S2104006A0F8BC08BC9E4670471D01400098
S2144006AC080000200000000000000000F4020020BB
S2144006BC5C030020C4030020000000000000000083
S2144006CC00000000000000000000000000000000D9
S2144006DC00000000000000000000000084064000FF
S2144006EC00000000000000000000000000000000B9
S2144006FC00000000000000000000000000000000A9
S21440070C0000000000000000000000000000000098
S21440071C0000000000000000000000000000000088
S21440072C0000000000000000000000000000000078
S21440073C0000000000000000000000000000000068
S21440074C0000000000000000000000000000000058
S21440075C01000000000000000E33CDAB34126DE6F5
S21440076CECDE05000B00000000000000000000005E
S21440077C0000000000000000000000000000000028
S21440078C0000000000000000000000000000000018
S21440079C0000000000000000000000000000000008
S2144007AC00000000000000000000000000000000F8
S804000000FB
