S0130000424D535F302E3176302E312E737265633C
S113000070080020F100000015090000ED00000058
S113001000000000000000000000000000000000DC
S1130020000000000000000000000000ED000000DF
S11300300000000000000000ED000000ED000000E2
S1130040ED000000ED000000ED000000ED000000F8
S1130050ED080000ED000000ED00000000000000CD
S1130060ED000000ED000000ED000000ED000000D8
S1130070ED000000ED000000ED000000ED000000C8
S1130080ED000000ED000000ED00000010B5064C8E
S11300902378002B07D1054B002B02D0044800E045
S11300A000BF0123237010BD500400200000000095
S11300B07C10000008B5084B002B03D00748084902
S11300C000E000BF07480368002B00D108BD064BC1
S11300D0002BFBD09847F9E7000000007C100000DB
S11300E0540400207C10000000000000FEE7C0461D
S11300F010B52B4B2B4A9A4203D02B4B284A9A42D9
S113010004D32A4B2A4A9A4210D31EE0294A264B8A
S113011003339B1A9B0801339B000022204821498A
S11301208C58845004329A42FAD1EAE7224A1F4B8F
S113013003339B1A9B0801339B0000221C480021B7
S11301401418216004329A42FAD11C4AFF211C4B34
S11301508B439360FD3990235B001A4AD1501A4BAC
S11301609A7B2E318A43111C20220A439A739A7B6C
S11301700C218A43111C08220A439A739A7B032197
S11301808A43111C02220A439A73104A516880233D
S11301900B4353600E4B98470E4B9847FEE7C046FF
S11301A0000000207C100000500400206C0400209B
S11301B050040020040000205404002000ED00E05E
S11301C00000000000700041004800410040004170
S11301D0E90B00002509000070B582B0634C236868
S11301E08025ED002B432360C4B2002973D1604BFA
S11301F01D6802318D431D601D688026B605354398
S11302001D601D688026F60535431D601D68294361
S1130210196056490D68574B2B400B60012A15D1C4
S11302201E32554B1A70554B013B002BFCD1544BDD
S11302301B789B0722D5524A0225022113782B43AF
S1130240DBB2137013780B42F8D117E0002A00D008
S113025087E05F32484B1A70484B013B002BFCD1BE
S1130260474B1B789B0709D5454A02250221137881
S11302702B43DBB2137013780B42F8D10F231C40CD
S11302803D4B1C703D4B013B002BFCD13C4B1B7880
S11302909B0709D53A4A0224022113782343DBB28F
S11302A0137013780B42F8D10009C0B2324B1870A6
S11302B0324B013B002BFCD1314B1B789B0745D5BE
S11302C02F4A0220022113780343DBB21370137800
S11302D00B42F8D13AE00023012944D1244B196898
S11302E00222914319601D682649294019601D683E
S11302F025492940196019680A431A601B4A136882
S113030040218B43136001AB0201120F1A70020CDF
S11303105A70000A9870DC700025174E1748184A66
S11303203E39022401ABEB5C3370031C013B002B10
S1130330FCD113780B4206D013782343DBB213703D
S113034013780B42F8D10135042DEBD1074B1A6811
S1130350A02149000A431A6019680C4A0A401A602D
S113036002E001235B42181C02B070BD104400413E
S113037000080042FFFEFFFF280800425A05000063
S113038018080042FFFFFFDFFFFFFFBFFFFBFFFF77
S1130390F0B583B0294A13688024E4002343136032
S11303A00023012946D1264B196802229143196082
S11303B01C682449214019601C68234921401960A4
S11303C019680A431A601D4A136840218B4313605D
S11303D001AB1870020A5A70020C9A70000ED870A1
S11303E003260020194F1A4A3E390225341C01AB5A
S11303F0F35C3B70174B013B002BFCD113780B4291
S113040006D013782B43DBB2137013780B42F8D168
S11304103B78DBB2E400A3401843013EE6D2074B2D
S11304201A68A02149000A431A6019680A4A0A4056
S11304301A60031C181C03B0F0BDC04610440041F0
S113044000080042FFFFFFDFFFFFFFBF2808004254
S1130450180800425A050000FFFBFFFFF0B583B007
S1130460294A13688024E4002343136000230129EC
S113047046D1264B19680222914319601C6824490D
S1130480214019601C6823492140196019680A43F6
S11304901A601D4A136840218B43136001AB187026
S11304A0020A5A70020C9A70000ED87003260020BB
S11304B0194F1A4A3E390225341C01ABF35C3B70D8
S11304C0174B013B002BFCD113780B4206D0137859
S11304D02B43DBB2137013780B42F8D13B78DBB2B9
S11304E0E400A3401843013EE6D2074B1A68A0215A
S11304F049000A431A6019680A4A0A401A60031C30
S1130500181C03B0F0BDC04610440041000800426E
S1130510FFFFFFDFFFFFFFBF28080042180800426B
S11305205A050000FFFBFFFFF0B55F465646C0B416
S113053089B0534D2C688026F60034432C601B038D
S11305400224234352031A43C00610433F23194095
S113055049050843844600220121131C0B336446D9
S1130560DC40231C0B4002AC13550132162AF4D193
S11305701521A246514401235B4253449B46002368
S11305800022009201929246101C0024002503E0F0
S1130590019800900197301C57465F405C40261C30
S11305A02C1C5C405A40151C0A785A40013982467A
S11305B0009B5945ECD101210A40D2002B1C0B4071
S11305C01B011A4363461A430C4064012243331C43
S11305D00B409B011A43C501FF231D402A430F40D2
S11305E03F023A43019B0B405B021A4300980840C8
S11305F08002131C034307AA1370190A5170190CC3
S113060091701B0ED3701F4B19680222914319601D
S113061018681D490140196018681C490140196097
S113062019680A431A60164A136840218B43136001
S11306300325174E1748184A3E39022407ABEB5CD2
S11306403370031C013B002BFCD113780B4206D002
S113065013782343DBB2137013780B42F8D1013DB6
S1130660ECD2074B1A68A02149000A431A601968A2
S11306700A4A0A401A6009B00CBC92469B46F0BD77
S11306801044004100080042FFFFFFDFFFFFFFBFEF
S1130690280800425A05000018080042FFFBFFFF2B
S11306A008B5012000210122014B984708BDC0462E
S11306B0D901000002280AD003DC0023012809D054
S11306C012E0032805D06023042803D00CE0202383
S11306D000E040238020142907DC013958188023C6
S11306E05B421843C0B200E00020704738B52820B0
S11306F000210122544CA047082000210122A047D8
S11307002A2000210122A047792000210122A047AC
S1130710D52000210122A047F02000210122A0477A
S1130720782000210122A047092000210122A047AE
S1130730062000210122A047722000210122A047A7
S1130740002000210022A0472A2000210122A047E6
S1130750792000210122A047DA2000210122A047AC
S1130760102000210122A047DC2000210122A04703
S1130770002000210122A047812000210122A0475E
S11307807F2000210122A047D92000210122A04777
S1130790F12000210122A047DB2000210122A047F3
S11307A0402000210122A047782000210122A047F7
S11307B0282000210122A047012000210122A04776
S11307C0802000210122A0470C2000210122A04703
S11307D0012000210122A047022000210122A0477C
S11307E01424194D1F2000210022A847013C002C8D
S11307F0F8D1A02000210122134B98471434124D44
S11308001F2000210022A847013C002CF8D1C02061
S1130810002101220C4B984714340B4D1F2000215A
S11308200022A847013C002CF8D1E020002101223D
S1130830054B98471434044D1F2000210022A8477B
S1130840013C002CF8D138BDD901000008B50021C5
S11308500022014B984708BDD9010000F8B500AF4C
S1130860041C081C111C124B984700210122114B37
S11308709847201C104B9847051E142D00DD1425A5
S1130880EB1DDB08DB006A46D31A9D466E466846BC
S1130890211C2A1C094B9847002D07DD6C4675194D
S11308A0074E2078B0470134AC42FAD1BD46F8BDBA
S11308B0B5060000D9010000690C0000D10C00004D
S11308C04D08000030B583B00D1C141C01A90A2288
S11308D0044B984701A8291C221C034B984703B0DA
S11308E030BDC046610C00005D080000074B80224B
S11308F012041A601A68802109050A431A60044A1E
S1130900116803230B4313607047C0461C44004125
S113091010180040024A117801230B4313707047EA
S113092003180040F8B586480023036085498323F3
S11309305B020B60844A854B1380854C2568042335
S11309402B43236001230360824B0B60824B138093
S1130950824A116810230B431360814A136881494A
S11309600B431360804B1968B020400001431960A9
S1130970196880200005014319607C480468082137
S11309802143016010687A49014011601A68E0212E
S113099049020A431A60774B1A6877490A431A6076
S11309A01A6876490A431A601A6875490A431A6034
S11309B0744A116822230B431360734A116803239A
S11309C00B43136071480278022102231A43D2B206
S11309D002706F4A10780343DBB213706D480368EA
S11309E06D4A13430360FF226C4B1A706C4C2278DF
S11309F001231A43D2B222706A4D2A688826B602AD
S1130A0032432A60684A15782B43DBB2137023788B
S1130A108B432370036819430160644B9847644B0C
S1130A209847644C201C01210122634DA847201DD6
S1130A3002210122A847201C083003210122A847D3
S1130A40201C0C3004210122A847201C1030012155
S1130A500A22A847201C143002210A22A847201C7D
S1130A60183003210A22A847201C1C3004210A2222
S1130A70A847524801210022514CA047514D281C3F
S1130A8001210022A047281C01210022A0470020A8
S1130A901C21382201234C4CA047FA239B00013B24
S1130AA0002BFCD1494801210022494B9847FA23E5
S1130AB09B00013B002BFCD1454E464C464F47481A
S1130AC001210022B047464801210022B047454891
S1130AD001210022B047254A136808218B43136083
S1130AE0FA235B00013B002BFCD1204A1168083338
S1130AF00B431360FA23013B002BFCD10C25334834
S1130B0001210022A0474101090F4002000D0329E1
S1130B1008D8FA239B009C466044013105222E4BE1
S1130B20984708E0052906D8FA239B009C466044B0
S1130B3003390E22B847013D002DE0D1BFE7C0467E
S1130B40080C0040040C0040020C0040054000006A
S1130B5020040040010601000E41000000E100E015
S1130B6000440041780DC00818440041104400417D
S1130B707F3FFEFF2844004100C00740010007C03A
S1130B80B0000153181800400C180040021800402F
S1130B9000180040000800420C0030300C080042ED
S1130BA0160800420408004214080042ED06000042
S1130BB0A1060000000000205D08000012B4D2016C
S1130BC0D9010000E2B6C201290500000A0300F8B9
S1130BD0910300005D040000C5080000CA118003F1
S1130BE01A13A0016A54A00370B50D4E0D4D0024D4
S1130BF0AD1BAD1005D0A300F35801349847A542AE
S1130C00F9D100F029FA084E084D0024AD1BAD10AF
S1130C1005D0A300F35801349847A542F9D170BD1B
S1130C206410000064100000641000006C100000E8
S1130C30931E10B5222B0FD80A2A06D000230C1CB1
S1130C40C91800F081F8201C10BD0028F6DA2D2305
S1130C5040420B702C3BF2E7002300200B70F3E7BB
S1130C6008B5FFF7E5FF08BD10B5830727D0037863
S1130C70002B26D0031C032102E01A78002A1CD082
S1130C8001330B42F9D119680F4A104C8A188A4370
S1130C9022420FD1043319680B4A8A188A4322422C
S1130CA008D104331968084A8A188A432242F1D0C9
S1130CB000E001331A78002AFBD1181A10BD031C76
S1130CC0E1E70020FAE7C046FFFEFEFE8080808058
S1130CD0031C0B4370B5051C9B0701D1032A15D8CF
S1130CE0002A12D04C1C0978013A6B1C2970002987
S1130CF01CD0211C07E00C7801335D1E013A2C70D6
S1130D000131002C12D0002AF5D170BD051C0C4E07
S1130D100C680C4BE318A3433342E1D104352B1F79
S1130D20043A04311C60032AF2D8D9E79C18002144
S1130D30002AEAD019700133A342FBD1E5E7C0468B
S1130D4080808080FFFEFEFEF0B5574645464E4645
S1130D50E0B48AB090466A461D4B0D1C061C13CBAA
S1130D6013C213CB13C213CB13C21B78EA461370FE
S1130D704346023B2F1C0024222B01D924E04C467D
S1130D80631C301C4146994600F042F953465B5CB3
S1130D90301C3B70414600F0B5F80137061EEED119
S1130DA04B46E8540023002C07D0EA5C295DE95443
S1130DB02A550133013CA342F7DB281C0AB01CBCB2
S1130DC090469946A246F0BD2C700020F6E7C04636
S1130DD03010000008B5034B002B02D0024800F08D
S1130DE005F808BD00000000FD0D000008B5011C59
S1130DF000220020002300F01BF808BD38B5094B81
S1130E00094CE41AA41009D0084AA518AD00ED183D
S1130E102B68013C9847043D002CF9D100F026F9D9
S1130E2038BDC046781000007C100000FFFFFF3F73
S1130E30F8B544465F4656464D469B462F4BF0B4A4
S1130E401C68A4235B00051CE0580E1C9046002877
S1130E504BD043681F2B0DDC5C1C002D21D10233C9
S1130E609B0044601E5000203CBC90469946A2461C
S1130E70AB46F8BD224B002B3CD0C820400000E01C
S1130E8000BF002836D0A42200235200A15843609A
S1130E900160A05040328350043283500124002D5D
S1130EA0DDD09A0091468144424688214F467A50CB
S1130EB0C4225200904680444246873999401268C1
S1130EC08A460A4394464246614611608422494652
S1130ED05F4652008F50022DC1D1021C55468D32FF
S1130EE0FF3211680D431560B9E7201C4D30FF3007
S1130EF0E050AEE701204042B6E7C0462C100000A7
S1130F0000000000002243088B4274D303098B4283
S1130F105FD3030A8B4244D3030B8B4228D3030CC5
S1130F208B420DD3FF22090212BA030C8B4202D367
S1130F301212090265D0030B8B4219D300E0090A8F
S1130F40C30B8B4201D3CB03C01A5241830B8B4298
S1130F5001D38B03C01A5241430B8B4201D34B0381
S1130F60C01A5241030B8B4201D30B03C01A5241E6
S1130F70C30A8B4201D3CB02C01A5241830A8B426B
S1130F8001D38B02C01A5241430A8B4201D34B0254
S1130F90C01A5241030A8B4201D30B02C01A5241B8
S1130FA0CDD2C3098B4201D3CB01C01A524183096C
S1130FB08B4201D38B01C01A524143098B4201D3A6
S1130FC04B01C01A524103098B4201D30B01C01AD1
S1130FD05241C3088B4201D3CB00C01A524183084B
S1130FE08B4201D38B00C01A524143088B4201D378
S1130FF04B00C01A5241411A00D2014652411046D8
S11310007047FFE701B5002000F00CF802BDC046B0
S11310100029F7D003B5FFF775FF0EBC4243891AC8
S11310201847C0467047C04643000000280000200F
S1131030303132333435363738396162636465664A
S11310406768696A6B6C6D6E6F70717273747576B4
S11310507778797A00000000F8B5C046F8BC08BC7F
S11310609E467047D50D0000B5000000F8B5C04697
S10F1070F8BC08BC9E4670478D000000D0
S113107C43313A0043323A0043333A0043343A00A2
S113108C43353A0043363A0041563A0053543A0039
S113109C0100000000000000000000001403002008
S11310AC7C030020E403002000000000000000008A
S11310BC0000000000000000000000000000000020
S11310CC00000000000000000000000028100000D8
S11310DC0000000000000000000000000000000000
S11310EC00000000000000000000000000000000F0
S11310FC00000000000000000000000000000000E0
S113110C00000000000000000000000000000000CF
S113111C00000000000000000000000000000000BF
S113112C00000000000000000000000000000000AF
S113113C000000000000000000000000000000009F
S113114C01000000000000000E33CDAB34126DE63C
S113115CECDE05000B0000000000000000000000A5
S113116C000000000000000000000000000000006F
S113117C000000000000000000000000000000005F
S113118C000000000000000000000000000000004F
S113119C000000000000000000000000000000003F
S9030000FC
